:02000004080AE8
:1000000000000A08185E0A08000005000600050145
:080010000402EA0300000000F5
:10001800AC510A0809480A4908B5884205D0094A76
:10002800824202D0121A04F071FF0748074A0021E1
:10003800121A04F091FF064808BD00BF0003002013
:10004800545D0A089C0300209C030020200A00201D
:10005800200A002070B504F0B9FC074B074C1E4677
:10006800E41AA4080025A54204D056F8253098477C
:100078000135F8E770BD00BF105D0A08505D0A0839
:1000880000F05CBE08B500F0B9FFBDE8084004F018
:100098005FBC02F01BBC02F021BC000008B5034A9B
:1000A80000210C2002F096FBFEE700BFC9240A08D5
:1000B8000078B0FA80F04009704701230370704758
:1000C8007047006A0368DB681847000010B504F041
:1000D80095FB5B2103F09AFE04F090FB044601F0C7
:1000E80049F80A220146204603F0C8FE04F086FBC0
:1000F800BDE81040014903F085BE00BF4A520A0816
:1001080010B50446094B036003F062F9214603F079
:100118005EFB04F073FB04F057FB2046044B40F8E9
:10012800043B03F05BFA204610BD00BFE0510A080B
:10013800C8510A0810B50446FFF7E2FF2046FFF74A
:10014800AAFF204610BD000008B502F0C9F9034B0C
:100158001860BDE8084002F089BB00BF28090020EC
:1001680038B50B4B8469054603607CB16368013B75
:1001780063605BB9236820469B689847A368013B86
:10018800A3601BB923682046DB689847284638BD1A
:10019800B05A0A0810B50446FFF7E2FF204610BD22
:1001A80010B50446FFF7DCFF2046FFF774FF204632
:1001B80010BD0EB400B58CB00DAA52F8041B202354
:1001C8008DE80600039204930168002304AA1E2008
:1001D800059302F00FFB0CB05DF804EB03B0704719
:1001E8000EB400B58CB00DAA52F8041B20238DE87C
:1001F8000600039204930168002304AA28200593AB
:1002080002F0F8FA0CB05DF804EB03B0704703682D
:100218002BB14268934202D2184604F061BE002016
:10022800704738B50568044645B143689D4205D214
:10023800284604F0E3FE013005442560204638BD19
:10024800F8B504460F46466821B90368721C426037
:100258009955F8BD084604F0D1FEA368451CAA19B3
:100268009A4208D820682A463946304404F04EFE9F
:1002780063681D446560F8BD70B504464068A668AB
:1002880025680B46044A311A284402F037FB636894
:1002980001301844606070BD4D520A0870B50446BC
:1002A8004068A66825680B46044A311A284402F0BB
:1002B80025FB636801301844606070BD50520A081D
:1002C800F0B5476B87B0044607B3FFF7FFFE04F0AD
:1002D80095FA314903F096FD04F090FA616B03F04A
:1002E80091FD04F08BFA3A2103F090FD04F086FAB0
:1002F8000A22218F03F0FBFD228F0023616B204629
:1003080003F06AFF421E5042504142E02546FFF783
:10031800DDFE04F073FA204903F074FD04F06EFA70
:100328000A2294F8231003F0B4FD04F067FA2E2192
:1003380003F06CFD04F062FA0A2294F8221003F02C
:10034800A8FD04F05BFA2E2103F060FD04F056FAD4
:100358000A2294F8211003F09CFD04F04FFA2E2194
:1003680003F054FD04F04AFA0A2215F8201F03F09E
:1003780092FD0A4B01AE00930FCD0FC62B68228F5A
:10038800337069463B46204604F086F8431E5842BF
:10039800584107B0F0BD00BF54520A08FC580A087B
:1003A80008B5086804F09CFD054B064918601A68F2
:1003B8000548FFF7FEFE054B01221A7008BD00BF75
:1003C8000003002063520A08A00400200403002050
:1003D8001FB50B4C0968684603F082FE6946204643
:1003E80003F091FE226807490748FFF7E2FE074B32
:1003F800012268461A7003F02CFE04B010BD00BF3D
:10040800A003002073520A08A0040020040300205F
:1004180008B5086804F064FD054B064918601A68B9
:100428000548FFF7C6FE054B01221A7008BD00BF3C
:100438005C04002083520A08A00400200403002062
:1004480008B5086804F04CFD054B064958605A6821
:100458000548FFF7AEFE054B01221A7008BD00BF24
:100468005C04002098520A08A0040020040300201D
:1004780008B5086804F034FD054B064998609A6889
:100488000548FFF796FE054B01221A7008BD00BF0C
:100498005C040020AF520A08A004002004030020D6
:1004A80008B5086804F01CFD054B064918601A6871
:1004B8000548FFF77EFE054B01221A7008BD00BFF4
:1004C800C4030020C5520A08A00400200403002029
:1004D80037B5134B134D1B68022B07D0042B0AD1D9
:1004E800114B00241A685A689B6805E02B680024A1
:1004F8006B68AB6800E000242A686B68A968DBB207
:10050800C9B20091D2B2A1B20848013401F06EFF1D
:100518003C2CF1D1054803B0BDE8304000F0ACBE3A
:10052800000300205C040020B8030020C80300205A
:1005380070B5054604684368142606FB0346A642C0
:1005480004D0204603F085FD1434F8E7286802F04B
:10055800C5F9284670BD08B500234377006803F045
:100568003FFFBDE8084000F00BBE8842F8B50646DC
:100578000C46154616D9904215D2A2F114056C1AEC
:10058800A1F114070444AF421CD02CB129462046DF
:1005980003F04FFD2B7C2374284603F05AFD143DCD
:1005A800143CF0E70ED0AC420CD02EB121463046B8
:1005B80003F03FFD237C3374204603F04AFD1434D6
:1005C8001436F0E7F8BD2DE9F041002303604360DD
:1005D80083604E6804469E420F4624DD4FF014089F
:1005E80008FB06F002F072F90546E0B194E806004F
:1005F80008FB0212FFF7B9FF206802F06FF92560C7
:10060800A6603E687B6808FB0368464509D02DB1A3
:100618003146284603F086FD337C2B741436143596
:10062800F3E77B6863602046BDE8F0812DE9F0417F
:100638008F188EB0B94206460D469046059106972A
:1006480080F0FC800B8805A8ADF81230FFF7E9FDB3
:1006580003689F4240F2F28005A8FFF7D8FD47F2F1
:100668007622BDF81230C4B2934200F09F800DD8B4
:1006780047F26122934265D047F26422934239D00F
:1006880046F67052934240F0BD802FE047F2647204
:10069800934241D047F27672934200F0988047F235
:1006A8006172934240F0AE806DE005A8FFF7AFFDA0
:1006B800C5B205A8FFF7B5FD059C6249204604F0C0
:1006C80093FC0146002800F0B5805F49204604F0FD
:1006D8008BFC002800F0AD805C49204604F084FCC7
:1006E800002800F0A68005A8FFF79BFD059B9F4208
:1006F800DBD8A3E00AAB079307A8102300255449C9
:1007080009930895FFF79CFD07A82146FFF7B4FD5C
:10071800204604F0D5F926E005A8FFF782FD036816
:100728009F4240F28B80A4B20121204604F09EF93A
:1007380005A8FFF76CFD011C18BF0121204604F035
:10074800A6F97BE00AAB07934249102307A80025C6
:1007580009930895FFF774FD07A82146FFF78CFD5C
:10076800204604F0C0F9014607A8FFF797FD089B4B
:100778000295013B00930195079B2A4614213046B8
:1007880000F072FB5AE005A8FFF74BFD03689F4293
:1007980054D9A4B20121204604F068F905A8FFF74E
:1007A80036FD0146204604F0B5F947E00EAD204677
:1007B80005F8104D00F0E6FC0346284623B1264A0A
:1007C800934201D0984739E000F0D8FC36E005A8FC
:1007D800FFF727FD059B20465D1BC5EB08050A931F
:1007E8000B950C958DF81C4000F0D6FC03460AA921
:1007F80007A823B1194A934201D098471EE000F098
:10080800BEFC1BE0FFF762FC03F0F8FF144903F09D
:10081800F9FA03F0F3FF294603F007FB002302214E
:100828000091728B029301931946304600F01CFB2D
:1008380004E00121284604F019F954E70EB0BDE898
:10084800F08100BFE1520A0888530A08E4520A08F6
:10085800E8520A08EB520A0885110A0887110A08A3
:10086800EE520A082DE9F0418EB004AF0546052284
:1008780007F10C01006803F0C7FB002800F0958120
:10088800052801D0002095E1B7F80D20B7F80F40F2
:10089800130A43EA0222230A43EA042492B2A4B2C6
:1008A800A7F80D20A7F80F40002AEBD03B7B002BC0
:1008B8004FD100F05FFC6C7FE860B7F80F00002CA8
:1008C80043D1B7F80D30012B3FD1092824D0C828CF
:1008D80001D0042829D1FFF7F9FB03F08FFFB749AE
:1008E80003F090FA03F08AFF6B69E9680A22C91AD3
:1008F80003F0C4FA03F082FFB14903F096FAEB68FB
:10090800012428466B616C7700F068FBFFF71CFC3C
:1009180000F036FC20464DE1FFF7D8FB03F06EFFF0
:10092800A84903F082FA204644E1FFF7CFFB03F021
:1009380065FFA54903F066FA03F060FF0A22B7F8DD
:100948000F1003F0D4FA204634E1053818BF01200F
:1009580030E1B4F5806F12D9FFF7B8FB03F04EFF12
:100968009A4903F04FFA03F049FF0A22B7F80F102B
:1009780003F0BDFA2846FFF7EEFD01201AE104F165
:10098800080323F00703E846ADEB030D04AE224647
:100998003146286803F038FB84424FF0000440F0E9
:1009A800FF80B7F80F30F45400F0E4FB3B7BE860BD
:1009B800112B00F09B8007D8062B2DD00F2B00F0B1
:1009C8008780022B09D0E6E0292B32D0372B00F0A4
:1009D800D180142B40F0DF807AE06B7F7BB9FFF782
:1009E80075FB03F00BFF7A4903F01FFA01236B77BD
:1009F800284600F0F3FAFFF7A7FB00F0C1FB00233D
:100A0800C821B7F80D202846009102930193194692
:100A180000F02AFA0120C6E0C823B7F80D202846BE
:100A28000093029401942346214600F01DFA012008
:100A3800B9E0AB681BB9202001F048FFA860B7F8FF
:100A48000F40FE613444A6423C6201D30020AAE074
:100A580020223146A86804F0EEFA07F11C00FFF7DF
:100A6800E0FB0368A34208D2F86920B13B6A9842C8
:100A7800C0F09D80002084B200E05024FFF726FBE0
:100A880003F0BCFE534903F0BDF903F0B7FEA968B3
:100A980003F0B8F903F0B2FE3A2103F0B7F903F016
:100AA800ADFE0A22214603F022FA286803F098FCDA
:100AB8002B68AA681C875A6300236B7700F05AFBDF
:100AC800A0F59C5008382861E860686101206AE058
:100AD800FB682846C3F30F236B83B7F80F20314612
:100AE800FFF7A4FD00236B8301205CE0B7F80F300B
:100AF8003C7133449E427E61BB6153D23068B8601A
:100B080007F11400FFF78DFB7A69B7F80F30961BD1
:100B18009E1BFA61BB68304A3E6293427E621DD0DA
:100B28000BD802F1FD3202F1022293423AD107F1C9
:100B38001C01381D00F023FB34E0284A934213D0EF
:100B480002F19F6202F5003202F58072934229D1C8
:100B580007F11C01381D00F012FB23E007F11C010E
:100B6800381D00F00CFB1DE007F11C01381D00F0DA
:100B780006FB17E0B7F80F30A3B1FFF7A7FA03F0A9
:100B88003DFE174903F03EF903F038FE314603F005
:100B98004CF9012007E02846FFF7DDFC012002E0C0
:100BA800204600E00120C54604E0012002E004F0F0
:100BB8009BF960E72837BD46BDE8F081FF520A0877
:100BC8000D530A0812530A0825530A083C530A0809
:100BD8004D530A0853530A087274630061636F6EB9
:100BE80063530A082DE9FF4104460D46FFF7ACFAA6
:100BF800637F022B00F08A80237F628B0133DBB294
:100C08002377002A47D1022B45D8206803F0ECFC53
:100C180030B1002D7CD1206803F0A4FB002877DCDC
:100C280000F0A8FA0746206803F0DEFC657F064658
:100C3800012D32D128B967612046FFF78CFC354673
:100C480060E044F63822E368FB1A93420BD9FFF7B9
:100C58003DFA03F0D3FD374903F0E7F82046FFF7E4
:100C68007AFC00254EE042F21072934203D82369C1
:100C7800FB1A93420FD940F6B8326369FB1A9342C4
:100C880009D900230293019300931A4606212046AE
:100C980000F0EAF86761012534E0002DFBD16069B6
:100CA800381A7EB140F6B8339842F4D9FFF70EFAF5
:100CB80003F0A4FD204903F0B8F8206803F090FB86
:100CC80065771FE041F288339842E4D9206803F041
:100CD80087FB2068FFF7F4FA054608B9676111E059
:100CE800D4F8048001272783404604F087F9434657
:100CF8008DE8410002963A460221204600F0B4F8F9
:100D080023696361237F013B23770EE000250CE014
:100D18002046FFF7A7FD054600287FF47CAF206832
:100D280003F05EFB00F02CFAECE7284604B0BDE8BF
:100D3800F08100BF6C530A087E530A08F0B53D499C
:100D480095B03D48FFF735FA4C2441F2883001F060
:100D5800E5FD2246002101A804F0FEF8374B01AA60
:100D680002930A230393364B019404930C230593AF
:100D780003238DF8183000231946184601F09EFD0C
:100D880001F07CFD00221146104601F08FFD20B1D4
:100D98002C492948FFF70DFA03E02B492648FFF7AD
:100DA8001FFA01F073FD20B128492348FFF701FA23
:100DB80003E027492048FFF713FA40F6B83000F05F
:100DC800D7F9244C244B42F22736636000F0D2F95D
:100DD800A0F59C5008382061E0606061FFF776F963
:100DE80003F00CFD1D4903F020F823681C4A002578
:100DF8005A6350221A87206803F0F2FA657700F0E8
:100E0800B9F90746637F012B09D000F0B3F9C01B7D
:100E1800B04204D800210F48FFF7E4FEF2E7637FF1
:100E2800012BE8D10F4800F0F1F90E4800F024FA40
:100E380015B0F0BD8C530A08A00400209C530A0882
:100E4800A7530A08B4530A08C0530A08D3530A0818
:100E5800F0530A08DC0300200503002011540A0897
:100E6800A6540A08C80300202DE9F04F83B00446B1
:100E780000AF0068894616469B463D6BEA4603F07C
:100E8800B3FB002861D019F0FD0F00F09F80B9F185
:100E9800060F00F09B80637F012B56D116B9668B35
:100EA800002E54D0A9F10C03082B58D9BBF1000F20
:100EB80018BFA8467A6B08BF4FF00008002ABA6B23
:100EC80008F1050314BF90464FF00008984408F154
:100ED800070323F00703AA18ADEB030DC2F307239A
:100EE80076BA43EA0223C7F804D08DF80090ADF82B
:100EF8000160ADF80330BBF1000F4FD0002D4DD08D
:100F08002A4659460DF1050004F000F8681D7B6B70
:100F1800002B45D1002545454ED2C5EB08027B681C
:100F2800B2F5806F28BF4FF480625919206803F02A
:100F380032F90646002000F01BF9002E3AD120684D
:100F480003F04EFA667700F01BF9D54642E0238B92
:100F580001339BB203B901232383268BA2E7E368FD
:100F68002269934238BF134603F1420800F002F9A0
:100F7800C0EB080000280ADB00212046FFF732FEFC
:100F880000F0F8F8C0EB08000028F5DA8EE7217FBA
:100F980000298BD12046FFF725FE87E70520B6E715
:100FA800BB6B002BB6D01A467B68796B184403F0EC
:100FB800ADFFAFE73544AEE703D02046FFF7CBFAE5
:100FC800C3E700F0D7F82061D54603E0002E7FF490
:100FD8006DAF64E70C37BD46BDE8F08F1FB5002242
:100FE8005023009302920192034B1121FFF73CFF1B
:100FF80005B05DF804FB00BFF8510A0808B50021E8
:101008000548FFF7EFFD054B1B781BB1BDE808400D
:10101800FFF75EBA08BD00BFDC0300200403002010
:1010280070B5444D8CB001F063FA284603F02AFAF3
:1010380005F11C00002401F0FBFC3F4A3F4928460B
:101048006C632C8703F0E6FD3D4B3C211D605C6022
:101058009C60DC601C615C611C835C831C775C7732
:1010680002231A46374800F0F6F8334A364935481D
:1010780003F0D0FD3549364803F032F82E4A354999
:10108800334803F0C7FD00940194029403F0B6FBC3
:101098000646694603A8FFF796FA03A906A82E4D47
:1010A800FFF791FA2D4B06A92B6009A8FFF78BFAD9
:1010B80009AA1E21281D02F0ECFC09A8FFF738FA3E
:1010C80006A8FFF735FA264B2E622B6003A8FFF718
:1010D8002FFA244B2B6003F091FB4FF4165103F0C9
:1010E8006FFB02F075F9294602F067FC6846FFF7C6
:1010F8001FFA114A1C49284603F08CFD4FF69C73D1
:101108001A4D01206B804FF6FF732C70AB8001F0F5
:1011180089FB2246214609A8099401F0C1F9099BD7
:101128001E2B04D103232B7011236C80AB800CB0D1
:1011380070BD00BFFC0300209C0300209D010A082D
:10114800DC030020C8030020C1110A08A5540A08BE
:10115800A00300205B400A0838040020C8510A0890
:10116800545A0A08E0510A0809010A08B003002085
:1011780001F0D4BB01F0B4B901F0BAB970477047B7
:10118800704700007F289ABF024B53F820000020C8
:10119800704700BFB8560A087F289ABF024B53F819
:1011A80020000020704700BFB8540A0801F0A0B919
:1011B80001F09EB901F08CB910B50446C06808B1B9
:1011C80001F08CFB23781BB10021E07903F04EFC81
:1011D800204610BD38B50446C0680D4608B101F078
:1011E8007DFBA379062B0CBF04200320684380B243
:1011F800A08001F06BFBE06028B1A288002103F019
:10120800ABFE658038BDA080608038BD10B504464F
:101218000121C07903F02AFC0021E07903F037FCB2
:101228000123237010BD38B5037805460C461BB161
:101238000021C07903F01AFC2B78EC7153B1A4B2E9
:101248002046012103F012FC2046BDE83840002169
:1012580003F01DBC38BD70B50446164600258371E1
:1012680005700572C5600561FFF7B4FF2046314679
:10127800FFF7D9FF204670BDC368002B00F08E85AC
:101288002DE9F0410446837986B0023BDBB2042B9A
:1012980096BF294A322552F82350FFF78BFF23695E
:1012A800C01AA842F9D372B6A179A3880229ADF869
:1012B8000A30D4F80CE000F07282072900F06F823F
:1012C800062900F03284052900F0AB83082900F0D4
:1012D800A883002940F06385184A4FF40006BDF83A
:1012E8000A309BB2002B00F095830496BDF80A30B3
:1012F8000EF10305033B9BB2ADF80A309EF80030AF
:10130800DBB28DF807309EF80130DBB28DF806307D
:101318009EF80230DBB28DF808309DF807709DF812
:1013280006309DF808001B0243EA07430343039372
:101338008DF805101BE100BFB8580A0868040020A2
:10134800004600BF00BF00BF00BF00BF00BF00BF16
:1013580000BF00BF00BF00BF00BF00BF00BF00BF8D
:1013680000BF00BF00BF00BF00BF00BF00BF00BF7D
:1013780000BF00BF00BF00BF00BF00BF00BF00BF6D
:1013880000BF00BF00BF00BF00BF00BF00BF00BF5D
:1013980000BF00BF00BF00BF00BF00BF00BF00BF4D
:1013A80000BF00BF00BF00BF00BF00BF00BF00BF3D
:1013B80000BF00BF00BF00BF00BF00BF00BF00BF2D
:1013C80000BF00BF00BF00BF00BF00BF00BF00BF1D
:1013D80000BF00BF00BF00BF00BF00BF00BF00BF0D
:1013E80000BF00BF00BF00BF00BF00BF00BF00BFFD
:1013F80000BF00BF00BF00BF00BF00BF00BF00BFED
:1014080000BF00BF00BF00BF00BF00BF00BF00BFDC
:1014180000BF00BF00BF00BF00BF00BF00BF00BFCC
:1014280000BF00BF00BF00BF00BF00BF00BF00BFBC
:1014380000BF00BF00BF00BF00BF00BF00BF00BFAC
:1014480000BF00BF00BF00BFE3791068C3EBC30350
:1014580000EB8307BF8850F823305F83004600BF46
:1014680000BF00BF00BF00BF00BF00BF00BF00BF7C
:1014780000BF00BF00BF00BF00BF00BF00BF00BF6C
:1014880000BF00BF00BF00BF00BF00BF00BF00BF5C
:1014980000BF00BF00BF00BF00BF00BF00BF00BF4C
:1014A80000BF00BF00BF00BF00BF00BF00BF00BF3C
:1014B80000BF00BF00BF00BF00BF00BF00BF00BF2C
:1014C80000BF00BF00BF00BF00BF00BF00BF00BF1C
:1014D80000BF00BF00BF00BF00BF00BF00BF00BF0C
:1014E80000BF00BF00BF00BF00BF00BF00BF00BFFC
:1014F80000BF00BF00BF00BF00BF00BF00BF00BFEC
:1015080000BF00BF00BF00BF00BF00BF00BF00BFDB
:1015180000BF00BF00BF00BF00BF00BF00BF00BFCB
:1015280000BF00BF00BF00BF00BF00BF00BF00BFBB
:1015380000BF00BF00BF00BF00BF00BF00BF00BFAB
:1015480000BF00BF00BF00BF00BF00BF00BF00BF9B
:1015580000BF00BF00BF049B5B0804939DF80530E3
:101568000133DBB2172B8DF8053000F2DB82E3790B
:101578001068C3EBC30300EB8307BF8850F8233020
:101588001F830398049B18427FF4DAAE004600BF1D
:1015980000BF00BF00BF00BF00BF00BF00BF00BF4B
:1015A80000BF00BF00BF00BF00BF00BF00BF00BF3B
:1015B80000BF00BF00BF00BF00BF00BF00BF00BF2B
:1015C80000BF00BF00BF00BF00BF00BF00BF00BF1B
:1015D80000BF00BF00BF00BF00BF00BF00BFE3796E
:1015E8001068C3EBC30300EB8307BF8850F82330B0
:1015F8005F83004600BF00BF00BF00BF00BF00BF41
:1016080000BF00BF00BF00BF00BF00BF00BF00BFDA
:1016180000BF00BF00BF00BF00BF00BF00BF00BFCA
:1016280000BF00BF00BF00BF00BF00BF00BF00BFBA
:1016380000BF00BF00BF00BF00BF00BF00BF00BFAA
:1016480000BF00BF00BF00BF00BF00BF00BF00BF9A
:1016580000BF00BF00BF00BF00BF00BF00BF00BF8A
:1016680000BF00BF00BF00BF00BF00BF00BF00BF7A
:1016780000BF00BF00BF00BF00BF00BF00BF00BF6A
:1016880000BF00BF00BF00BF00BF00BF00BF00BF5A
:1016980000BF00BF00BF00BF00BF00BF00BF00BF4A
:1016A80000BF00BF00BF00BF00BF00BF00BF00BF3A
:1016B80000BF00BF00BF00BF00BF00BF00BF00BF2A
:1016C80000BF00BF00BF00BF00BF00BF00BF00BF1A
:1016D80000BF00BF00BF00BF00BF00BF00BF00BF0A
:1016E80000BF00BF00BF00BF00BF00BF00BF00BFFA
:1016F80000BF00BF00BF00BF00BF00BF00BF00BFEA
:1017080000BF00BF00BF00BF00BF00BF00BF00BFD9
:1017180000BF00BF00BF00BF00BF00BF00BF00BFC9
:1017280000BF00BF00BF00BF00BF00BF00BF00BFB9
:1017380000BF00BF00BF00BF00BF00BF00BF00BFA9
:1017480000BF00BF00BF00BF00BF00BF00BF00BF99
:1017580000BF00BF00BF00BF00BF00BF00BF00BF89
:1017680000BF00BF00BF00BF00BF00BF00BF00BF79
:1017780000BF00BF00BF00BF00BF00BF00BF00BF69
:1017880000BF00BF00BF00BF00BF00BF00BF00BF59
:1017980000BF00BF00BF00BF00BF00BFDBE6BDF851
:1017A8000A30174A9BB24FF400050026002B00F0C0
:1017B80031810495BDF80A300EF10301033B9BB259
:1017C800ADF80A309EF80030DBB28DF806309EF88E
:1017D8000130DBB28DF807309EF80230DBB28DF8AD
:1017E80008309DF806309DF807009DF80870000243
:1017F80040EA03433B4303938DF8056080E000BF54
:1018080068040020004600BF00BF00BF00BF00BF43
:1018180000BF00BF00BF00BF00BF00BF00BF00BFC8
:1018280000BF00BF00BF00BF00BF00BF00BF00BFB8
:1018380000BF00BF00BF00BF00BF00BF00BF00BFA8
:1018480000BF00BF00BF00BF00BF00BF00BF00BF98
:1018580000BF00BF00BF00BF00BF00BF00BF00BF88
:1018680000BF00BF00BF00BF00BF00BF00BF00BF78
:1018780000BF00BF00BF00BF00BF00BF00BF00BF68
:1018880000BF00BF00BF00BF00BF00BF00BF00BF58
:1018980000BF00BF00BF00BF00BF00BF00BFE379AB
:1018A8001068C3EBC30300EB8307BF8850F82330ED
:1018B8005F83004600BF00BF00BF00BF00BF00BF7E
:1018C80000BF00BF00BF00BF00BF00BF00BF00BF18
:1018D80000BF00BF00BF00BF00BF00BF00BF00BF08
:1018E80000BF00BF00BF00BF049B5B0804939DF8C6
:1018F80005300133DBB2172B8DF8053000F28380F9
:10190800E3791068C3EBC30300EB8307BF8850F883
:1019180023301F830398049B18427FF473AF00465B
:1019280000BF00BF00BF00BF00BF00BF00BF00BFB7
:1019380000BF00BF00BF00BF00BF00BF00BF00BFA7
:1019480000BF00BF00BFE3791068C3EBC30300EB1F
:101958008307BF8850F823305F83004600BF00BF6D
:1019680000BF00BF00BF00BF00BF00BF00BF00BF77
:1019780000BF00BF00BF00BF00BF00BF00BF00BF67
:1019880000BF00BF00BF00BF00BF00BF00BF00BF57
:1019980000BF00BF00BF00BF00BF00BF00BF00BF47
:1019A80000BF00BF00BF00BF00BF00BF00BF00BF37
:1019B80000BF00BF00BF00BF00BF00BF00BF00BF27
:1019C80000BF00BF00BF00BF00BF00BF00BF00BF17
:1019D80000BF00BF00BF00BF00BF00BF00BF00BF07
:1019E80000BF00BF00BF00BF00BF00BF00BF00BFF7
:1019F80000BF00BF00BF00BF00BF00BF00BF00BFE7
:101A080000BF00BF70E7BDF80A308E469BB2002BBE
:101A18007FF4CFAE62B6FFF7CDFB206106B0BDE81C
:101A2800F0815E4B5E4A184611684FF400080027A3
:101A3800BDF80A2092B2002AECD0CDF81080BDF88B
:101A48000A200EF10305033A92B2ADF80A209EF877
:101A58000020D2B28DF806209EF80120D2B28DF86F
:101A680007209EF80220D2B28DF808209DF80620A3
:101A78009DF807E09DF808C04FEA0E2E4EEA024294
:101A880042EA0C0203928DF80570E2795E68C2EBB7
:101A9800C20201EB820EBEF804E051F8222005963E
:101AA800A2F818E0039E049A164223D05A68059EAD
:101AB800921B4F2AFAD9E279C2EBC20201EB820EDD
:101AC800BEF804E051F82220A2F81AE04268059214
:101AD8005A68059E921B072AFAD9049A520804925A
:101AE8009DF805200132D2B2172A8DF80520CCD9ED
:101AF800AE469DE75A68059E921B182AFAD9E279E4
:101B0800C2EBC20201EB820EBEF804E051F82220BB
:101B1800A2F81AE0426805925A68059E921B452A67
:101B2800FAD9DAE7AE46FFF7DABB1D4A4FF00045AF
:101B38000026BDF80A309BB2002B3FF46BAF04952A
:101B4800BDF80A300EF10401043B9BB2ADF80A302F
:101B58009EF80030DBB28DF807309EF80130DBB21A
:101B68008DF806309EF80230DBB28DF808309EF80A
:101B78000330DBB28DF809309DF807309DF8067008
:101B88009DF808E03F049DF8090047EA0363034312
:101B980043EA0E2303938DF805607EE0001000E011
:101BA80068040020004600BF00BF00BF00BF00BFA0
:101BB80000BF00BF00BF00BF00BF00BF00BF00BF25
:101BC80000BF00BF00BF00BF00BF00BF00BF00BF15
:101BD80000BF00BF00BF00BF00BF00BF00BF00BF05
:101BE80000BF00BF00BF00BF00BF00BF00BF00BFF5
:101BF80000BF00BF00BF00BF00BF00BF00BF00BFE5
:101C080000BF00BF00BF00BF00BF00BF00BF00BFD4
:101C180000BFE3791068C3EBC30300EB8307BF88F9
:101C280050F823305F83004600BF00BF00BF00BFED
:101C380000BF00BF00BF00BF00BF00BF00BF00BFA4
:101C480000BF00BF00BF00BF00BF00BF00BF00BF94
:101C580000BF00BF00BF00BF00BF00BF00BF00BF84
:101C680000BF00BF00BF00BF00BF00BF00BF00BF74
:101C780000BF00BF00BF00BF00BF00BF00BF00BF64
:101C880000BF00BF049B5B0804939DF80530013337
:101C9800DBB21F2B8DF805307ED8E3791068C3EBD3
:101CA800C30300EB8307BF8850F823301F830398D2
:101CB800049B18427FF476AF004600BF00BF00BF08
:101CC80000BF00BF00BF00BF00BF00BF00BF00BF14
:101CD80000BF00BF00BF00BF00BF00BF00BF00BF04
:101CE800E3791068C3EBC30300EB8307BF8850F8A0
:101CF80023305F83004600BF00BF00BF00BF00BFA6
:101D080000BF00BF00BF00BF00BF00BF00BF00BFD3
:101D180000BF00BF00BF00BF00BF00BF00BF00BFC3
:101D280000BF00BF00BF00BF00BF00BF00BF00BFB3
:101D380000BF00BF00BF00BF00BF00BF00BF00BFA3
:101D480000BF00BF00BF00BF00BF00BF00BF00BF93
:101D580000BF00BF00BF00BF00BF00BF00BF00BF83
:101D680000BF00BF00BF00BF00BF00BF00BF00BF73
:101D780000BF00BF00BF00BF00BF00BF00BF00BF63
:101D880000BF00BF00BF00BF00BF00BF00BF00BF53
:101D980000BF00BF00BF75E78E46CAE6704703293B
:101DA80000F02E811E4A4FF400050026BDF80A30C7
:101DB8009BB2002B3FF42EAE0495BDF80A30E079B3
:101DC800033B9BB2ADF80A309EF800300EF10301D8
:101DD800DBB28DF807309EF80130C0EBC000DBB2F3
:101DE8008DF808309EF80230D2F800E0DBB28DF8AA
:101DF80006309DF807709DF808300EEB800C1B022A
:101E080043EA07439DF80670BCF804C05EF820005A
:101E18003B4303938DF80560A0F81AC07DE000BF2E
:101E280068040020049B5B080493004600BF00BFC1
:101E380000BF00BF00BF00BF00BF00BF00BF00BFA2
:101E480000BF00BF00BF00BF00BF00BF00BF00BF92
:101E580000BF00BF00BF00BF00BF00BF00BF00BF82
:101E680000BF00BF00BF00BF00BF00BF00BF00BF72
:101E780000BF00BF00BF00BF00BF00BF00BF00BF62
:101E880000BF00BF00BF00BF00BF00BF00BF00BF52
:101E980000BF00BF00BF00BF00BF00BF00BF00BF42
:101EA80000BF00BF00BF00BF00BF00BF00BF00BF32
:101EB800E07917689DF80530C0EBC00007EB800E8D
:101EC800BEF804E057F820000133DBB28DF8053086
:101ED800A0F818E0004600BF00BF00BF00BF00BF69
:101EE80000BF00BF00BF00BF00BF00BF00BF00BFF2
:101EF80000BF00BF00BF00BF00BF00BF00BF9DF80C
:101F08000530182B7AD0E3791068C3EBC30300EBD4
:101F18008307BF8850F823305F830398049B1842D7
:101F280080D1004600BF00BF00BF00BF00BF00BF98
:101F380000BF00BF00BF00BF00BF00BF00BF00BFA1
:101F480000BF00BFE3791068C3EBC30300EB83074E
:101F5800BF8850F823301F839DF805300133DBB26A
:101F68008DF80530049B5B080493004600BF00BF52
:101F780000BF00BF00BF00BF00BF00BF00BF00BF61
:101F880000BF00BF00BF00BF00BF00BF00BF00BF51
:101F980000BF00BF00BF00BF00BF00BF00BF00BF41
:101FA80000BF00BF00BF00BF00BF00BF00BF00BF31
:101FB80000BF00BF00BF00BF00BF00BF00BF00BF21
:101FC80000BF00BF00BF00BF00BF00BF00BF00BF11
:101FD80000BF00BF00BF00BF00BF00BF00BF00BF01
:101FE80000BF00BF00BF00BF00BF00BF00BF00BFF1
:101FF80000BF00BF9DF80530182B84D18E46D5E66A
:10200800174A4FF400050026BDF80A309BB2002B92
:102018003FF400AD0495BDF80A300EF10301033B0F
:102028009BB2ADF80A309EF80030DBB28DF807306D
:102038009EF80130DBB28DF806309EF80230DBB234
:102048008DF808309DF807709DF806309DF8080057
:102058001B0243EA0743034303938DF80560E0E05E
:1020680068040020004600BF00BF00BF00BF00BFDB
:1020780000BF00BF00BF00BF00BF00BF00BF00BF60
:1020880000BF00BF00BF00BF00BF00BF00BF00BF50
:1020980000BF00BF00BF00BF00BF00BF00BF00BF40
:1020A80000BF00BF00BF00BF00BF00BF00BF00BF30
:1020B80000BF00BF00BF00BF00BF00BF00BF00BF20
:1020C80000BF00BF00BF00BF00BF00BF00BF00BF10
:1020D80000BF00BF00BF00BF00BF00BF00BF00BF00
:1020E80000BF00BF00BF00BF00BF00BF00BF00BFF0
:1020F80000BF00BF00BF00BF00BF00BF00BF00BFE0
:1021080000BF00BF00BF00BF00BF00BF00BF00BFCF
:1021180000BF00BF00BF00BF00BF00BF00BF00BFBF
:1021280000BF00BF00BF00BF00BF00BF00BF00BFAF
:1021380000BF00BF00BF00BF00BF00BF00BF00BF9F
:1021480000BF00BF00BF00BF00BF00BF00BF00BF8F
:1021580000BF00BF00BF00BF00BF00BF00BF00BF7F
:1021680000BF00BF00BF00BF00BF00BF00BF00BF6F
:1021780000BF00BF00BF00BF00BF00BF00BF00BF5F
:1021880000BF00BF00BFE3791068C3EBC30300EBD7
:102198008307BF8850F823305F83004600BF00BF25
:1021A80000BF00BF00BF00BF00BF00BF00BF00BF2F
:1021B80000BF00BF00BF00BF00BF00BF00BF00BF1F
:1021C80000BF00BF00BF00BF00BF00BF00BF00BF0F
:1021D80000BF00BF00BF00BF00BF00BF00BF00BFFF
:1021E80000BF00BF00BF00BF00BF00BF00BF00BFEF
:1021F80000BF00BF00BF00BF00BF00BF00BF00BFDF
:1022080000BF00BF00BF00BF00BF049B5B08049372
:102218009DF805300133DBB2172B8DF8053000F23D
:10222800E380E3791068C3EBC30300EB8307BF883F
:1022380050F823301F830398049B18427FF412AF91
:10224800004600BF00BF00BF00BF00BF00BF00BF07
:1022580000BF00BF00BF00BF00BF00BF00BF00BF7E
:1022680000BF00BF00BF00BF00BF00BF00BF00BF6E
:1022780000BF00BF00BF00BF00BF00BF00BF00BF5E
:1022880000BF00BF00BF00BF00BF00BF00BF00BF4E
:1022980000BF00BF00BF00BF00BF00BF00BF00BF3E
:1022A80000BF00BF00BF00BF00BF00BF00BF00BF2E
:1022B80000BF00BF00BF00BF00BF00BF00BF00BF1E
:1022C80000BFE3791068C3EBC30300EB8307BF8843
:1022D80050F823305F83004600BF00BF00BF00BF37
:1022E80000BF00BF00BF00BF00BF00BF00BF00BFEE
:1022F80000BF00BF00BF00BF00BF00BF00BF00BFDE
:1023080000BF00BF00BF00BF00BF00BF00BF00BFCD
:1023180000BF00BF00BF00BF00BF00BF00BF00BFBD
:1023280000BF00BF00BF00BF00BF00BF00BF00BFAD
:1023380000BF00BF00BF00BF00BF00BF00BF00BF9D
:1023480000BF00BF00BF00BF00BF00BF00BF00BF8D
:1023580000BF00BF00BF00BF00BF00BF00BF00BF7D
:1023680000BF00BF00BF00BF00BF00BF00BF00BF6D
:1023780000BF00BF00BF00BF00BF00BF00BF00BF5D
:1023880000BF00BF00BF00BF00BF00BF00BF00BF4D
:1023980000BF00BF00BF00BF00BF00BF00BF00BF3D
:1023A80000BF00BF00BF00BF00BF00BF00BF00BF2D
:1023B80000BF00BF00BF00BF00BF00BF00BF00BF1D
:1023C80000BF00BF00BF00BF00BF00BF00BF00BF0D
:1023D80000BF00BF00BF00BF00BF00BF00BF00BFFD
:1023E80000BF00BF00BF10E78E460DE6F0B5448879
:1023F8009DF814508C4227D9047A44B16243634350
:102408006C43C2F30722C3F30723C4F30725877974
:10241800C66801EB4101082F06EB010411D8012021
:10242800B84010F4D27F08D1C0060AD5FF2A08BFE9
:10243800FE2272546570A370F0BD73546270A5706B
:10244800F0BD72546370A570F0BD000008B500F0CF
:102458004FF800F04DF8014B186008BD68040020E3
:1024680008B5024B1B681B6B019308BDD001060819
:1024780008B5024B1B685B6C019308BDD0010608C8
:1024880008B5024B1B68DB6C019308BDD001060838
:1024980008B5024B1B685B6D019308BDD0010608A7
:1024A80008B5024B1B68DB6E019308BDB80106082E
:1024B80008B5024B1B685B68019308BD9C010608C0
:1024C80008B5024B1B68DB68019308BD9C01060830
:1024D80008B5024B1B681B69019308BD9C010608DF
:1024E80008B5024B1B685B69019308BD9C0106088F
:1024F80008B5024B1B681B68019308BDB0010608AC
:1025080008B5024B1B685B68019308BDB00106085B
:1025180008B5024B1B689B68019308BDB00106080B
:1025280008B5024B1B68DB68019308BDB0010608BB
:1025380008B5024B1B681B69019308BDB00106086A
:1025480008B5024B1B685B69019308BDB00106081A
:1025580008B5024B1B689B6A019308BDB0010608C9
:1025680008B5024B1B681B6B019308BDB001060838
:1025780008B5024B1B689B6F019308BDB0010608A4
:1025880008B5024B1B681B6E019308BDAC01060819
:1025980008B5024B1B685B6E019308BDAC010608C9
:1025A80008B5024B1B689B6E019308BDAC01060879
:1025B80008B5024B1B68DB6E019308BDAC01060829
:1025C80008B5024B1B681B6F019308BDAC010608D8
:1025D80008B5024B1B685B6F019308BDAC01060888
:1025E80008B5034B1B68D3F88030019308BD000081
:1025F800AC01060808B5024B1B681B68019308BDAF
:10260800BC01060808B5024B1B685B68019308BD4E
:10261800BC01060808B5024B1B689B68019308BDFE
:10262800BC01060808B5024B1B68DB68019308BDAE
:10263800BC01060808B5024B1B681B69019308BD5D
:10264800BC01060808B5024B1B681B6A019308BD4C
:10265800BC01060808B5024B1B681B6B019308BD3B
:10266800BC01060808B5024B1B685B6C019308BDEA
:10267800BC01060808B5024B1B68DB69019308BD5D
:10268800B401060808B5024B1B681B6A019308BD14
:10269800B401060808B5024B1B689B69019308BD85
:1026A800C401060808B5024B1B681B6A019308BDE4
:1026B800C401060808B5024B1B685B6A019308BD94
:1026C800C401060808B5024B1B689B6A019308BD44
:1026D800C401060808B5024B1B68DB6A019308BDF4
:1026E800C401060808B5024B1B681B6B019308BDA3
:1026F800C401060808B5024B1B685B6B019308BD53
:10270800C401060808B5024B1B689B6B019308BD02
:10271800C401060808B5024B1B681B6C019308BD71
:10272800C401060808B5024B1B68DB6C019308BDA1
:10273800C401060808B5024B1B681B68019308BD55
:10274800D801060808B5024B1B685B68019308BDF1
:10275800D801060808B5024B1B689B68019308BDA1
:10276800D801060808B5024B1B681B69019308BD10
:10277800D801060808B5024B1B685B69019308BDC0
:10278800D801060808B5024B1B689B69019308BD70
:10279800D801060808B5024B1B68DB69019308BD20
:1027A800D801060808B5024B1B681B6A019308BDCF
:1027B800D801060808B5024B1B685B6C019308BD7D
:1027C800C001060808B5024B1B689B6C019308BD45
:1027D800C001060808B5024B1B685B6B019308BD76
:1027E800A801020808B5024B1B681B6D019308BDC0
:1027F800A801020808B5024B1B685B6D019308BD70
:10280800A801020808B5024B1B68DB6E019308BDDE
:10281800A801020808B5024B1B681B6F019308BD8D
:10282800A801020808B5024B1B685B68019308BD44
:10283800A401060808B5024B1B685B69019308BD33
:10284800A401060808B5034B1B68D3F89030019320
:1028580008BD0000A401060808B5034B1B68D3F89F
:102868009C30019308BD0000A401060808B5024B7E
:102878001B689B68019308BDCC01060808B5024B8C
:102888001B68DB68019308BDCC01060808B5024B3C
:102898001B685B69019308BDCC01060808B5024BAB
:1028A8001B68DB6B019308BDCC01060808B5024B19
:1028B8001B681B69019308BDC801060808B5024BCF
:1028C8001B689B6A019308BDC801060808B5024B3E
:1028D8001B681B68019308BDA001060808B5024BD8
:1028E8001B685B68019308BDA001060808B5024B88
:1028F8001B689B68019308BDA001060808B5024B38
:102908001B68DB69019308BDA001060808B5024BE6
:102918001B685B6A019308BDA00106080021FFF748
:1029280089BF10B58368044613B10322014698474E
:10293800204610BD38B5046805467CB16368013B84
:1029480063605BB9236820469B689847A368013B8E
:10295800A3601BB923682046DB689847284638BD22
:102968000B68036013B15A6801325A6070477047A8
:10297800F8B5064615460C468F18BC4206D0336893
:1029880014F8011B9B6830469847F6E72846F8BDBF
:102998000022007CFFF7F4BD0021007CFFF7F8BDA2
:1029A8000021007CFFF7FCBD0021007CFFF700BE82
:1029B8000021007CFFF704BE10B50446FDF76BFB51
:1029C800204610BD10B5044608464FF47A73A3603C
:1029D800044B0021207461602360FFF701FE20464C
:1029E80010BD00BFD4580A080021007CFFF7F0BDD5
:1029F800704710B50446FDF74EFB204610BDF8B5EC
:102A08000F4600F10806051D002416F8011D0A22CC
:102A1800384601F03EFAAE42044407D0002CF4D008
:102A28002E21384601F0F2F90444EEE72046F8BDBD
:102A380010B50446044B112240F8043B002102F073
:102A48008BFA204610BD00BFFC580A0810B59DF847
:102A5800084044EA032343EA024242EA01610423AC
:102A68004160037510BD000037B5044D05609DF841
:102A780018500095FFF7EAFF03B030BDFC580A086C
:102A880000F11002012312F8101C1046012904D18C
:102A980052F8041C03EB410304E0022904BF52F876
:102AA800041C5B18013B02F11002ECD170470EB414
:102AB8002DE9F04187B000AF07F1340454F8046BF6
:102AC800054623463246102107F108007C60FFF7CF
:102AD8001DFF0F2816D900F1080323F00703E84665
:102AE800ADEB030D3246411C234668467C60FFF778
:102AF8000DFF021E04DD2B6869469B68284698472F
:102B0800C54607E030B12B6802469B6807F108010B
:102B1800284698471C37BD46BDE8F04103B07047CA
:102B280010B5044603689B689847A368013BA360F7
:102B38002BB923682046BDE81040DB68184710BD54
:102B480013B5026802AB03F8011D94681946012207
:102B5800A04702B010BD8368FBB11A78032A1AD8BF
:102B6800DFE802F00417021D0520704702685B6861
:102B78005268D05C2D2814D0A0F13003092B10D94D
:102B8800742810D066280ED0A0F16E035842584120
:102B98007047062070470020704718467047042089
:102BA8007047032070470220704710B50446FFF7AE
:102BB800D2FF02280DD016D3042814D82268A3689F
:102BC80050685B680A2200211844BDE8104002F0F2
:102BD800DFBA2268A36852685B68D05CA0F174030E
:102BE8005842584110BD002010BD10B54369044635
:102BF8005BB18068013BE0601030A06020616361D8
:102C08002BB1FFF73DFFA06001E0184610BD012081
:102C180010BD10B504467D21FFF792FF01232371F3
:102C2800204610BD08B50379012B02D0022B02D033
:102C380008BD2C2100E03A21FFF782FF08BD10B53E
:102C48000446FFF7EFFF20467B21FFF779FF0023BB
:102C58002371204610BD000038B504460D46FFF725
:102C6800E1FF23682046DB682A4603499847012389
:102C78002371204638BD00BF17590A0838B50446E5
:102C88000D46FFF7CFFF23682046DB682A46034935
:102C9800984701232371204638BD00BF1A590A08F6
:102CA800F8B50D46174622210446FFF749FF2A4684
:102CB80029462F44BA4238D0164616F8015B222D11
:102CC80003D05C2D01D01F2D2DD82368521A9B6884
:102CD800204698475C212046FFF732FF0C2D19D07B
:102CE80007D8092D0FD00A2D12D0082D14D1622132
:102CF8000AE0222D05D05C2D03D00D2D0CD17221B8
:102D080002E0294600E074212046FFF719FF09E098
:102D18006E21F9E76621F7E723682A46DB68094947
:102D28002046984731463246C4E7914204D023688A
:102D3800521A9D682046A84722212046FFF700FF27
:102D4800F8BD00BF25590A0870B504460D46164659
:102D5800FFF768FF204632462946FFF7A1FF022306
:102D68002371204670BD70B504460D461646FFF720
:102D780059FF204632462946FFF792FF0123237167
:102D8800204670BD38B50C68036805469C420CD0D7
:102D980014B1636801336360286828B14368013B54
:102DA80043600BB9FFF7BCFE2C60284638BD000015
:102DB80010B504460023036043601048E360A06038
:102DC800D1B10B78032B06D0B3B9136858684B6898
:102DD800C35C6E2B08D0136858684B680344A36023
:102DE8008B6849685B1AE3601146204651F8043B3A
:102DF80040F8043BFFF7C6FF204610BDA5540A085B
:102E0800002310B50446036043608360C360036118
:102E1800436171B10B78012B0BD101F11003836071
:102E2800CB681146436151F8043B40F8043BFFF777
:102E3800A9FF204610BD002310B504460360436077
:102E4800816031B1114651F8043B40F8043BFFF76B
:102E580099FF204610BD80680368DB6818477047F3
:102E680019B10B6808465B681847704719B10B68B9
:102E780008465B681847704770477047704738B511
:102E880004460D4600682E2102F0A4F82368C31AF0
:102E98002B6023B1037803B1013023682060184602
:102EA80038BD10B50446FDF7F6F8204610BD10B53C
:102EB8000446FDF7F0F8204610BD10B50446FDF7AE
:102EC800EAF8204610BD38B50C46054601F096FCD8
:102ED800844202D101F092FC05E001F0CBFC84426F
:102EE80005D101F0C7FCBDE8384001F06DBC01F028
:102EF80003FC844205D101F0FFFBBDE8384001F036
:102F0800F4BB21462846FFF7B1FF38BD08B502F0EB
:102F18006BF8B0FA80F0400908BD38B50546084698
:102F28000C4602F06BF8214602462846BDE83840B8
:102F3800FFF719BF2DE9F043914685B0494A1D4670
:102F4800036A4FF00008074601A80E460192039352
:102F58008DF808800C9CFFF772FE41464846FFF743
:102F680051FC80464049012201A8FFF7EDFE414689
:102F7800FFF7D3FF3EB13D49012201A8FFF7E4FE68
:102F88003146FFF7CAFF3DB13949012201A8FFF7D1
:102F9800DBFE2946FFF7C1FF2379DE070ED5A568BA
:102FA8002F21284602F05AF800B1451C3149012268
:102FB80001A8FFF7C9FE2946FFF7AFFF23799D0750
:102FC80007D52D49022201A8FFF7BEFEE168FFF7E9
:102FD80043FE2379580716D525692E46334613F83C
:102FE800012B3AB1202A01D11D4601E0282A01D03F
:102FF8001E46F3E70222214901A8FFF7A5FE721B2E
:103008002946FFF7B0FE2379190707D51C49012285
:1030180001A8FFF799FE6169FFF730FE2379DA0608
:1030280008D5042217490DEB0200FFF78DFEA169B0
:10303800FFF712FE23799B0607D51349062201A83C
:10304800FFF782FEE169FFF768FF01A8FFF7E1FDDE
:10305800386A022203680D49DB68984705B0BDE865
:10306800F08300BF34590A08B7590A08CD590A082D
:10307800465A0A0874590A0876590A0879590A08F2
:10308800E2590A087C590A0881590A08A3540A080F
:103098000068FFF7F5B970B5044608460D4601F01B
:1030A800ADFF2368024629462046BDE87040DB682C
:1030B800184713B5026802AB03F8011DD468194616
:1030C8000122A04702B010BD2DE9F041069D9846A7
:1030D8002B790E4619070446174605D56B69544ADD
:1030E8000021006A00F00DFFB8F1000F0DD05B2140
:1030F8002046FFF7DEFF41462046FFF7CCFF236856
:103108000222DB684B49204698472B79DA0725D5F8
:10311800D5F808802F21404601F0A0FF08B100F142
:10312800010841462046FFF7B6FF2B799B0709D5D2
:103138003A212046FFF7BDFFEB683F4A0021206A8D
:1031480000F0DFFE2B79022213F0040F236818BF6A
:103158003A49DB6808BF3A49204698472B7958070F
:1031680018D529690A46134613F8010B38B12028E7
:1031780001D1194601E0282801D01A46F3E723684F
:10318800521ADB682046984723680422DB682D49D9
:103198002046984700213846FFF734FB0146204671
:1031A800FFF779FF23680222DB6825492046984704
:1031B8001EB131462046FFF76EFF2B7913F0300F12
:1031C8002DD023682049DB680222204698472B79B6
:1031D800D9060BD523680722DB681C492046984787
:1031E800AB691B4A0021206A00F08BFE2B799A06F6
:1031F80011D5DB0605D523680222DB680F49204676
:103208009847236813492046DB680A229847E969EA
:103218002046FFF740FF5D212046FFF74AFF23685D
:103228002046BDE8F041DB6802220B49184700BF81
:1032380088590A084A520A0817590A088F590A0869
:1032480094590A0892590A0897590A089A590A0873
:103258004D520A08A2590A08A3540A082DE9F04F4A
:1032680007688B463C46456891461422554385B00D
:103278000193AB10184D02925D430123002D039377
:1032880023DD029B6E1003FB06F004EB0008B8F880
:1032980004A04A46D14528BF52465946205801F055
:1032A800B5FE039B48B9D14503D1019A1370354641
:1032B800E4E78CBF0120002000E0C00F0028F6D012
:1032C800AE1B08F11404013EF1E7E41B0248A41008
:1032D800604305B0BDE8F08FCDCCCCCCF0B5036928
:1032E80085B00191067E13B309B300231D4604AFD0
:1032F80000F10C0447F8043D394601A8FFF7BFFD6B
:103308000146A0B104AB03F8055D039A2046FFF718
:10331800A5FF9DF80B3053B12368142404FB003437
:10332800B4F906300834002BA8BFDEB2E4E7304613
:1033380005B0F0BD10B5094C2368DB070BD4204657
:10334800FCF7B6FE38B12046FCF7B7FE044A05493B
:10335800054801F05FFC044810BD00BF6C04002064
:103368009C030020832E0A082803002010B5094C6E
:103378002368DB070BD42046FCF79AFE38B12046B9
:10338800FCF79BFE044A0549054801F043FC044844
:1033980010BD00BF9C0400209C030020812E0A0859
:1033A8002C03002038B5002504460560456085607B
:1033B80005614561856140F8245FFFF759F8FFF71B
:1033C800B9FFE061FFF7D2FF25732062204638BDC0
:1033D80010B50A4C2368DB070ED42046FCF768FEBC
:1033E80050B10748FFF7DEFF2046FCF766FE054AA6
:1033F8000549034801F00EFC014810BD7004002087
:10340800740400209C03002061380A080023024A43
:1034180002490348FFF7FEB945370A08D5360A08B6
:103428005D360A0800231A4619461846FFF7F2B90E
:1034380073B50546CE6851F8043B02AC44F8083D24
:1034480001A8FFF78DFA224631462846FFF7B0FC5F
:1034580001A8FFF76FFA284602B070BD73B505469C
:103468000E6951F8043B02AC44F8083D01A8FFF787
:1034780077FA224631462846FFF7DDFC01A8FFF718
:1034880059FA284602B070BD73B505468E6851F8E2
:10349800043B02AC44F8083D01A8FFF761FA224654
:1034A80031462846FFF7ACFC01A8FFF743FA284647
:1034B80002B070BD30B58BB00D46014604A8FFF7C9
:1034C800E3FF04A8FFF791FBE8B104A96846FFF7FA
:1034D800AFFF0F490298FFF719FD044610B12C1CE5
:1034E80018BF012401A8FFF725FA002CE9D004A988
:1034F8006846FFF7B3FF6846FFF757FB286001A847
:10350800FFF718FADDE705A8FFF714FA0BB030BD8E
:10351800AD590A0837B50C461A492046154601F038
:1035280063FD40B901F06AF94FF4165101F048F90A
:1035380001F064F923E01449204601F055FD40B933
:1035480001F098F94FF4165101F03AF901F092F9A7
:1035580015E00E49204601F047FD78B902A94FF45D
:10356800165341F8043D2846FFF7A4FF01F0C4F8BC
:10357800019901F0B7F801F0BFF800E0002003B0AE
:1035880030BD00BFB2590A08B9590A08BC590A081F
:1035980070B5054604684368142606FB0346A64230
:1035A80005D004F10800FFF7F3FF1434F7E72868A3
:1035B800FFF794F9284670BD70B50546046843685E
:1035C80004EB0316A64204D0204600F042FD103456
:1035D800F8E72868FFF782F9284670BD10B5044659
:1035E8000C30FFF7D5FF2046FFF7E6FF204610BD59
:1035F80010B50446034B40F8043BFFF7EFFF2046A5
:1036080010BD00BFC8510A0810B50446FFF7F0FF07
:103618002046FCF740FD204610BD000010B50446CA
:10362800024B0360FFF7E4FF204610BD4C590A081F
:1036380010B50446FFF7F2FF2046FCF72CFD2046A4
:1036480010BD10B5044603681868FEF721FF204630
:1036580010BD00002DE9F04F9B461B4B85B05B6801
:103668008246C3F308030E46904653BBFFF7B0FEED
:10367800044624300390FFF70BFD237BF3B90123A5
:10368800237325686368F6B205EB83094D4513D0AB
:1036980055F8047B4146381DFFF720FE8642F5D3D6
:1036A8003B68CDF800B09B6838469E463246434694
:1036B80051467746B847E9E70023237303A8FFF785
:1036C800C0FF05B0BDE8F08F00ED00E02DE9F74F31
:1036D8009946194B07465B688846C3F308031646A4
:1036E80033BBFFF775FE044624300190FFF7D0FC8A
:1036F800237BD3B901232373256863685FFA86FBAC
:1037080005EB830A55450ED055F8046B4946301D24
:10371800FFF7E4FD8345F5D333684246DB68394655
:1037280030469847EEE70023237301A8FFF789FF87
:1037380003B0BDE8F08F00BF00ED00E02DE9F341D4
:10374800154B04465B688846C3F30803FBB9FFF7CB
:103758003FFE064624300190FFF79AFC96E8A00049
:10376800462605EB8707AF4207D101A8FFF769FF97
:10377800B442B4BF002001200AE055F8040B4146CA
:103788000430FFF7ABFD8642A8BF0646EBE70020F2
:1037980002B0BDE8F08100BF00ED00E070B504465E
:1037A8000368426803EB82029A4218460DD0066805
:1037B8000D680433AE42F7D1011D521A01F0B1FB76
:1037C80063680120013B636070BD002070BD1FB5B8
:1037D8000446243001910390FFF75AFC01A92046C2
:1037E800FFF7DCFF20B903A8FFF72BFF04B010BDDB
:1037F8006368002BF7D1FFF715FEF4E770B50446B0
:1038080005694369182606FB0356AE4215D005F133
:1038180010012046FFF7C2FF63680BB9FFF702FEED
:10382800E06929690368DB689847696919B1206A02
:103838000368DB6898471835E7E725696369182640
:1038480006FB0356B54204D0284600F002FC1835A2
:10385800F8E70023636170BD73B5044602ADFFF756
:10386800E1FD04F1240045F8040DFFF711FC2046A2
:10387800FFF7C4FF2846FFF7E4FE256963691826A9
:1038880006FB0356B54204D0284600F0E2FB183583
:10389800F8E72069FFF722F82068FFF71FF82046AD
:1038A80002B070BD03680A6802600B6043684A682A
:1038B80042604B6083688A6882608B60704710B58D
:1038C80004460023036043608360FFF7EBFF204654
:1038D80010BD8842F8B50446164625D9904224D230
:1038E800551A143D2C44A1F11407A2F10C05002629
:1038F800A5F108039F4237D084B155F8083C294602
:10390800236035F8043C04F10800A38035F9023C33
:10391800A660E380E6602661FFF7C4FF2846FFF74C
:1039280037FE143C143DE3E71ED001F108050027DB
:10393800A5F108039E4217D084B155F8083C2946E2
:10394800236035F8043C04F10800A38035F9023CF3
:10395800A760E380E7602761FFF7A4FF2846FFF729
:1039680017FE14341435E3E7F8BDF8B545688368E5
:1039780004469D420E4617460EDB0135002D05DD37
:10398800A9000068FEF7B2FF20B9F8BD0068FEF78D
:10399800A5FF00202060A5602568626805EB860108
:1039A80005EB8202521A081D01F0BBFA45F8267091
:1039B8006368012001336360F8BD37B504462430DD
:1039C8000D460190FFF764FB2368616803EB8100F3
:1039D80083421A4608D012680433AA42F8D101A8D3
:1039E800FFF72FFE00250EE02A462046FFF7BDFF11
:1039F80005460028F3D06368012B01D1FFF706FDC7
:103A080001A8FFF71EFE284603B030BD8842F8B56E
:103A180006460C46154614D9904213D2A2F1100559
:103A28006C1AA1F110070444AF4218D01CB1294602
:103A3800204600F0FEFA284600F00BFB103D103C33
:103A4800F2E70CD0AC420AD01EB12146304600F055
:103A5800F0FA204600F0FDFA10341036F2E7F8BD0F
:103A680070B50E1E05460BDD3001FEF72FFF04462C
:103A780070B195E8060001EB0212FFF7C7FF00E0FE
:103A880000242868FEF72AFF2C60AE60012070BD74
:103A980070BD2DE9F04F92460023462295B0036091
:103AA80043608360C3600361436102760291DAF880
:103AB800041005469942089309930A9340F39D80A0
:103AC80008A8FFF7CDFF002840F097808EE0214638
:103AD8000BA800F0AEFA0BA90FA8099E00F0A9FAEE
:103AE80009990A9B9942C0F2CE80013108A8FFF7D4
:103AF800B7FF002840F0C7800FA800F0AAFA0BA86B
:103B080000F0A7FA1434A742E1D10026B1460B967B
:103B18000C960D96099B9E4280F2A880089A330164
:103B2800D3580693002B00F09F8014237343CDF8DD
:103B38001C9001930BAC07A906A8FFF7A0F907464C
:103B4800002800F0918014AB014603F8399D079ACC
:103B58002046FFF783FB9DF817800090B8F1000F0F
:103B680053D1BDF81C300F97ADF840304FF6FF73B6
:103B7800CDF84480ADF84230CDF84880CDF84C807F
:103B88006768A3689F424FDA009B14225343D4F816
:103B980000B061680BEB030702FB01B207F11400E8
:103BA80039460393FFF795FEA7B10F9A039B11A916
:103BB8004BF80320BDF8403007F10800BB80BDF981
:103BC8004230C7F80890FB80C7F80C90C7F81090EF
:103BD800FFF768FE63680133636011A8FFF7D8FC3C
:103BE800B8F1000F11D00BA8FFF7D2FC08A8FFF717
:103BF800E3FC284615B0BDE8F08FDAF80040DAF8A3
:103C08000430142707FB03477DE72368009A142430
:103C180004FB0234069B1B7823BBDAF80030019AB8
:103C280013441B7CE3801DE00137002F0FDD1423B4
:103C380003FB07F00393FEF749FE834678B194E847
:103C48000600039B03FB0212FFF743FE00E0C34696
:103C58002068FEF743FEC4F800B0A76094E74FF071
:103C68000108BAE7083466E7013653E708A9284689
:103C7800FFF718FE0BA905F10C00FFF713FE9DF8DE
:103C880008302B76AFE7089B099A03EB061603EB7F
:103C98000212314606F11000FFF7B8FE1EB10FA957
:103CA800304600F0C6F9099B0133099324E7000068
:103CB8007FB504460E460546084B114644F8043BBA
:103CC80001A8FCF780FC01AA31462046FFF7E1FE77
:103CD80001A8FCF72DFC284604B070BDC8510A089D
:103CE800F0B50F468BB02B49384616461D46109C3A
:103CF80001F07AF928BB002C49D0294601A8FFF722
:103D0800DEFD2549242000F093FF0546B8B101A93E
:103D180004A8FFF7D4FD04A907A8FCF754FC07AAD8
:103D280031462846FFF7C4FF07A8FCF701FC1B4BE8
:103D38002C622B6004A8FCF7FBFB194B2B6001A835
:103D48001FE01849384601F04FF9F0B9FCB129468F
:103D580004A8FFF7B4FD1049242000F069FF0546C8
:103D680070B104A907A8FCF72EFC07AA314628461B
:103D7800FFF79EFF07A8FCF7DBFB084B2C622B60C4
:103D880004A8FCF7D5FB284602E0002000E0204606
:103D98000BB0F0BD0E5A0A08A85B0A08545A0A0864
:103DA8004C590A08125A0A08014A024B1A6070470D
:103DB800235A0A08A0040020F8B506460D468F18B5
:103DC8000024BD420CD0336815F8011B9B683046AF
:103DD8009847002801DB0444F3E7002C08BF044699
:103DE8002046F8BD70B505460C46084649B101F0B5
:103DF80005F92B68024621462846BDE87040DB6875
:103E0800184770BD08B5FFF7EDFF08BD03689B684C
:103E1800184738B50D210546FFF7F8FF0A21044673
:103E28002846FFF7F3FF204438BD38B50546FFF7AD
:103E3800D9FF04462846FFF7ECFF204438BD012A85
:103E480098BF0A2230B50B468BB000218DF824109C
:103E58000DF12304B3FBF2F505FB1233DBB2092B9A
:103E680094BF30333733DBB2214604F801392B468F
:103E7800002DEFD1FFF7B6FF0BB030BD10B422B95B
:103E88000368C9B29B6810BC1847D2B210BCFFF7D0
:103E9800D6BFFFF7F3BF38B50546FFF7EFFF044677
:103EA8002846FFF7B6FF204438BD2DE9F041074604
:103EB8000E4615462AB9BDE8F0410368C9B29B68A9
:103EC80018470A2A02D1002901DA04E0D2B2BDE873
:103ED800F041FFF7B4BF2D21FFF798FF2A460446AB
:103EE80071423846FFF7ABFF2044BDE8F08138B592
:103EF8000546FFF7DAFF04462846FFF78AFF204405
:103F080038BD0CB42DE9F04387B000AF07F1380491
:103F180054F8049B05460E4623464A461421381D8C
:103F28003C60FEF7F3FC132805D8391D2846FFF737
:103F380059FF044613E000F1080323F00703E8469D
:103F4800ADEB030D411C23464A4668463C60FEF72C
:103F5800DDFC69462846FFF745FF0446C5461EB105
:103F68002846FFF756FF044420461C37BD46BDE8E7
:103F7800F04302B0704710B50446FEF7D2FC204665
:103F880010BD0000034800238360034A034900F082
:103F980041BE00BFA40400209C0300207F3F0A0804
:103FA800704710B50446FCF776F8204610BD0000AF
:103FB80070B504460E46074B0025036040F80C5FB9
:103FC800FEF74EFA30462671FEF754FBA5602046F0
:103FD80070BD00BF845A0A080079FEF753BB10B5BC
:103FE8000446FEF77DFAE060236820465B6998473F
:103FF800002808DAFEF774FAE368C01AA368984242
:10400800F2D34FF0FF3010BD2DE9F04180460D4648
:104018000C468F18BC42A4EB050607D04046FFF7B4
:10402800DEFF002802DB04F8010BF3E73046BDE8A9
:10403800F0810023036043608360037310B50C684C
:1040480004604C6844608C6884600B604B608B60D3
:1040580010BD10B504460068FEF740FC204610BDB0
:1040680010B50446006808B1FEF738FC0023236049
:10407800A360636010BD38B504460D460068013181
:10408800FEF734FC10B184E82100012038BD10B5DA
:104098000368044613B143688B4207D22046FFF7F2
:1040A800EAFF20B1A3680BB922681370012010BD84
:1040B80070B50E46114604461546FFF7E8FF18B9D5
:1040C8002046FFF7CDFF09E02A463146A560206863
:1040D80000F01CFF2268A3680021D154204670BD5F
:1040E80038B50023044603604360836003730D46BC
:1040F80039B1084600F082FF294602462046FFF7FC
:10410800D7FF204638BD884210B50B46044607D075
:10411800096819B19A68FFF7CBFF01E0FFF7A0FF24
:10412800204610BD10B50446002303604360836039
:104138000373FFF7E8FF204610BD00004FF69C739D
:1041480037B50D4C002563804FF6FF732846A380D2
:104158002570FEF767FB02A840F8045D2A46294649
:10416800FEF79EF9019B1E2B04D103232370112314
:104178006580A38003B030BDB404002037B502AC1D
:10418800036804F8011DDD6B012247F23053214614
:10419800A84703B030BD10B40368DC6B47F2305356
:1041A800A44610BC604737B502AC036804F8011D8B
:1041B800DD6B214613460122A84703B030BD704786
:1041C80070470020704710B50446FBF764FF20468F
:1041D80010BDFBF760BF00002DE9F0431F460368E0
:1041E8008FB0DB6A06460C4690469847134B186812
:1041F80003681B689847F0B102A8FEF719FC20462F
:1042080000F0FCFE0023009381B23B4603AA20463F
:10421800FEF7D8FA78B9336809ADD3F82090084B7F
:1042280003AC08930FCC0FC5236842462B7008A92E
:104238003B463046C8470FB0BDE8F083A45B0A0888
:10424800FC580A0810B5044603689B689847A36899
:10425800013BA3602BB923682046BDE81040DB680A
:10426800184710BD70B5044606464D69044B8C3599
:1042780044F8043B0FCD0FC42B683046237070BD43
:10428800FC580A0810B543690446B3F88620B3F809
:1042980084309A4205D06269B2F8843013441879A0
:1042A80010BD03681B6998470028F4D14FF0FF3010
:1042B80010BD10B543690446B3F88620B3F88430BE
:1042C8009A4208D06269B2F88430591CA2F8841066
:1042D8001344187910BD03681B6998470028F1D169
:1042E8004FF0FF3010BD10B504692068FEF78AF959
:1042F80010B12068FEF7A6F92046BDE81040FBF78C
:10430800CABEF8B543691746B3F88620B3F88430B7
:1043180005469A420E4606D103681B69984710B9AC
:104328004FF0FF3414E069693046B1F88430B1F8D1
:1043380086401944E41ABC4228BF3C460431224650
:1043480000F0E4FD6A69B2F884302344A2F88430AE
:104358002046F8BD42690023A2F884304269A2F8D9
:104368008630704738B542690446B2F886301BB1CA
:10437800B2F884209A420BD0184B186803681B685F
:10438800984718B363691868FEF73CF918B91DE037
:10439800FFF7E0FFF0E76069B0F886107F2915D8CD
:1043A800051DC1F18002002329440068FEF742F987
:1043B80000280BDD6369B3F886200AB9A3F88420C6
:1043C8006269B2F886301844A2F886006269B2F8C9
:1043D8008630B2F88400181A38BD00BFA45B0A08FA
:1043E80038B5436904461868FEF70CF918B16369D3
:1043F8001868FEF727F96569FEF72CF928606069E7
:10440800112200218C3000F0A7FD2046BDE838407D
:10441800FFF7A0BFF8B54FF47A738360174B0026F7
:1044280046600360466186610446A0200F46FBF79C
:1044380030FE054638B10760A0F88460A0F88660B1
:104448008830FEF7F5FA1420FBF723FE034628B15F
:104458000122426082600A4A05610260A0696561C2
:10446800A36128B14368013B43600BB9FFF7EAFE3B
:104478002046FFF76FFF2046F8BD00BFB05A0A0874
:10448800945A0A0810B50446FEF7E4F80146204697
:10449800FFF7C0FF204610BD2DE9F041984603689C
:1044A8008AB0DB6A06460C46154698472F4B1868B3
:1044B80003681B689847002855D02B46062201211F
:1044C800CDF8008002207769FEF7A4F82023386031
:1044D80002930027736903971B6801200193244BFB
:1044E80002AA009323493B46FEF77CF973691868D2
:1044F800FEF788F8002836D03046FFF72BFF022356
:10450800ADF808302B0A8DF80A30E3794FF4FA50E9
:104518008DF80C30A3798DF80B508DF80D30637938
:104528008DF80E3014F8043F8DF80F30FEF742F97D
:1045380073690546102202A91868FEF773F88046C9
:104548002846FEF737F90FCC75698C350FC52368F7
:104558002B70B8F1000F05D033683046DB6A9847F6
:10456800384600E001200AB0BDE8F081A45B0A08E3
:10457800FB5A0A08F45A0A0810B543690446186831
:10458800FEF740F808B9002010BD074B186803680B
:104598001B6898470028F6D063691868FEF72AF860
:1045A800B0FA80F0400910BDA45B0A082DE9F34178
:1045B8000025456004460E4617469846FFF7DCFF7F
:1045C80060B160690195CDF800802B463A463146C6
:1045D8000068FEF747F8002803DA01E04FF0FF30E3
:1045E800606002B0BDE8F08138B50446FFF7C4FF4B
:1045F80000BB6369B3F88610B3F88420914219D1DF
:104608001868FDF7FFFF28B163691868FDF7F2FF26
:10461800012801D000250EE0236820461B69984731
:10462800002814BF0125002505D123682046DB6A30
:10463800984700E00125284638BD08B5FFF79CFFDC
:10464800003018BF012008BD024B1A68024B1A60DF
:10465800704700BF30030020BC040020704741743D
:104668007047007CFEF756B8007CFEF72BB8007C3C
:10467800FEF738B8007CFEF72DB8007CFEF73AB894
:1046880010B50446FBF707FD204610BD70B5457C04
:1046980004460E4625B9007CFEF73CF8002805DDE7
:1046A8003146207CBDE87040FEF704B8284670BD4E
:1046B80010B5044608461146002262604FF47A722B
:1046C800A260054A20742260012262741A46FDF72E
:1046D800E1FF204610BD00BF405B0A080023007CB4
:1046E800FEF720B80022FFF7F9BF007CFDF7DABF1C
:1046F800007CFEF707B8000038B50C4D296811F0AA
:10470800010411D12846FBF7D3FC68B1084A2146B9
:10471800084B0948FFF7CCFF2846FBF7CEFC074AB1
:104728000749054800F076FA034838BD58050020C7
:104738005C050020D4040020C00400209C03002055
:1047480065460A084174704770470021007CFEF7EF
:1047580019B80121007CFEF715B8007CFEF70AB8ED
:10476800007CFDF7FFBF38B50446007C0D46FEF718
:1047780001F8002801DC607C20B12946207CFEF786
:1047880009F8012038BD007CFEF70CB810B50446C6
:10479800FBF781FC204610BD10B50446002363607A
:1047A8004FF47A73A360054B0846236001232174F4
:1047B80063741146FDF7BEFF204610BD705B0A0802
:1047C8000022007CFDF7BEBF007CFDF7C3BF0000E0
:1047D80010B504461422002100F0BEFB054B20460C
:1047E8006360054BE36040F2011323818123238238
:1047F80010BD00BF65060020E405002030B50E4D51
:1048080087B001A8FFF7E4FF296811F0010410D16F
:104818002846FBF74DFC60B101AA21460748FFF77F
:10482800BBFF2846FBF749FC054A0649034800F048
:10483800F1F9024807B030BDE00500206807002004
:104848009C03002051470A0810B504461422002191
:1048580000F082FB054B20466360054BE36040F2A5
:10486800011323818123238210BD00BF1808002073
:104878008007002010B50E4C86B001A8FFF7E4FFB2
:104888002368DB0710D42046FBF712FC60B101AAAD
:1048980001210848FFF780FF2046FBF70EFC064A77
:1048A8000649044800F0B6F9024806B010BD00BF3A
:1048B8007C070020040800209C03002051470A08B8
:1048C8007047002211461046FDF7F0BF0348044B1D
:1048D800044A0549036000F09DB900BF1C09002087
:1048E800A05B0A089C030020C9480A0808B5144BB5
:1048F80033B1FFF783FF03681B699847002816DC6C
:10490800104B33B1FFF7F8FE03681B69984700287E
:1049180010DC0D4B0BB1AFF300800C4B7BB1FFF7F4
:10492800A9FF03681B699847002806DC08BDAFF398
:104938000080E5E7AFF30080EBE7AFF3008008BD48
:10494800000000000000000000000000000000005F
:1049580008B5FFF7CBFFFDF7C3FD014B186008BD95
:10496800280900200248034A0349121A00F0CEBA67
:104978000040024004400240505D0A0807B5002389
:1049880000931A466FF07701FDF766FF03B05DF8F4
:1049980004FB000007B543880A2B08D0502B09D127
:1049A800094B1B683BB103B05DF804EB1847FFF7F0
:1049B800E5FF06E0002300931A466FF07701FDF744
:1049C8004BFF03B05DF804FB2009002038B5104CFC
:1049D800104D2368AB42104B0CBF012200221A7005
:1049E80002D0FFF7BFFF2560FDF762FD00F0BCFABB
:1049F8000A4B1BB1FDF75CFDAFF3008000210748AF
:104A0800FDF74CFFBDE8384000210548FDF71ABF07
:104A1800004002401E1C279A2409002000000000C4
:104A28009D490A0810B504460F48FFF7D5FA28B182
:104A3800A4F10D03022B01D8002010BD00F090F85E
:104A4800FDF7D2FF08B1012CF6D9FFF755FEFFF7A5
:104A58004FFE18B1A4F11203012BEDD9172C8CBF0E
:104A68000020012010BD00BF5C090020172838B5C0
:104A780004460D460AD8FF2908D0FFF7D3FF28B10E
:104A880029462046BDE83840FDF742BD38BD38B557
:104A980004460D46FDF744FDFF2810D0062804D82B
:104AA8004D2323FA00F0C30709D42046FFF7BAFFC5
:104AB80028B129462046BDE83840FDF739BD38BD44
:104AC80010B50446FDF72CFD0438C0B2012808D9FA
:104AD8002046FFF7A7FF20B12046BDE81040FDF7AC
:104AE8002FBD002010BD10B5044609289CBF0A340C
:104AF800A4B22046FFF796FF50B103212046FDF7E8
:104B0800FFFC032804D12046BDE81040FDF728BD6E
:104B1800002010BD38B504460D46FFF783FFF0B1FD
:104B280004212046FDF7ECFC042805D1A9B2204653
:104B3800BDE83840FDF70CBD02212046FDF7E0FC3A
:104B480002280CD12046FDF7EBFC012801D00428EF
:104B580005D129462046BDE83840FDF709BD38BDD6
:104B680038B50B4D296811F001040FD12846FBF721
:104B78009FFA58B121460748FDF724FF2846FBF75E
:104B88009CFA054A0549034800F044F8014838BD35
:104B98002C090020300900209C03002077290A08EE
:104BA80013B5084C00231A46194600932046FDF712
:104BB8005BFF2046044A054902B0BDE8104000F0FA
:104BC80029B800BF440900209C030020F9290A08DD
:104BD80070B50C4C0C4E0D4D00212046FFF7E8F93E
:104BE80020460B4C3246294600F014F80121204695
:104BF800FFF7DEF9324629462046BDE8704000F04E
:104C080009B800BF5C0900209C030020A93F0A08DE
:104C18006C0900200B460146184600F069B90000EF
:104C2800024B1868BFF35F8F704700BF7C090020F4
:104C380010B5002814BF044601242046FDF746FE9F
:104C480020B9FFF7EDFF08B18047F6E710BD000077
:104C5800244B1A68D0075CBF01221A60224B1A68DD
:104C6800D1075CBF01221A60204B1A68D2075CBFCB
:104C780001221A601E4B1A68D0075CBF01221A6015
:104C88001C4B1A68D1075CBF01221A601A4B1A68BC
:104C9800D2075CBF01221A60184B1A68D0075CBFA4
:104CA80001221A60164B1A68D1075CBF01221A60EC
:104CB800144B1A68D2075CBF01221A60124B1A689B
:104CC800D0075CBF01221A60104B1A68D1075CBF7D
:104CD80001221A600E4B1A68D2075CBF01221A60C3
:104CE800704700BFAC090020A8090020A4090020D3
:104CF800A00900209C0900209809002094090020A0
:104D0800900900208C0900208809002084090020CF
:104D180080090020184B1A68D1075CBF01221A606D
:104D2800164B1A68D2075CBF01221A60144B1A6826
:104D3800D0075CBF01221A60124B1A68D1075CBF0A
:104D480001221A60104B1A68D2075CBF01221A6050
:104D58000E4B1A68D0075CBF01221A600C4B1A6808
:104D6800D1075CBF01221A600A4B1A68D2075CBFE0
:104D780001221A60704700BFCC090020C809002032
:104D8800C4090020C0090020BC090020B80900207F
:104D9800B4090020B0090020184B1A68D1075CBF7D
:104DA80001221A60164B1A68D2075CBF01221A60EA
:104DB800144B1A68D0075CBF01221A60124B1A689C
:104DC800D1075CBF01221A60104B1A68D2075CBF7A
:104DD80001221A600E4B1A68D0075CBF01221A60C4
:104DE8000C4B1A68D1075CBF01221A600A4B1A687B
:104DF800D2075CBF01221A60704700BFEC0900208F
:104E0800E8090020E4090020E0090020DC0900206E
:104E1800D8090020D4090020D0090020244B1A68A2
:104E2800D0075CBF01221A60224B1A68D1075CBF09
:104E380001221A60204B1A68D2075CBF01221A604F
:104E48001E4B1A68D0075CBF01221A601C4B1A68F7
:104E5800D1075CBF01221A601A4B1A68D2075CBFDF
:104E680001221A60184B1A68D0075CBF01221A6029
:104E7800164B1A68D1075CBF01221A60144B1A68D6
:104E8800D2075CBF01221A60124B1A68D0075CBFB8
:104E980001221A60104B1A68D1075CBF01221A6000
:104EA8000E4B1A68D2075CBF01221A60704700BF18
:104EB8001C0A0020180A0020140A0020100A0020EA
:104EC8000C0A0020080A0020040A0020000A00201A
:104ED800FC090020F8090020F4090020F00900204E
:104EE8000A22002100F054B90A22002100F050B92A
:104EF80010B5054C13462CB10A4601460220AFF303
:104F0800008010BD204610BD0000000010B5431EF3
:104F18000A44914204D011F8014B03F8014FF8E715
:104F280010BD884210B501EB020301D8421E0BE008
:104F38009842FBD28118D21AD34204D013F8014DFB
:104F480001F8014DF8E710BD994204D011F8014B62
:104F580002F8014FF8E710BD03460244934202D01D
:104F680003F8011BFAE7704738B5124B05461C6871
:104F7800A36BD3B91820FDF7A9FC43F20E33A06345
:104F880003804AF6CD33438041F2342383804EF2C6
:104F98006D63C3804DF6EC630381052343810B23C6
:104FA800838101220023C0E90423A36B00221D6131
:104FB8005A6138BD98030020C9B2034610F8012B86
:104FC8001AB19142F9D11846704700290CBF18460A
:104FD8000020704710B50446FFF7EEFF18B92046C9
:104FE80000F00CF8204410BD10F8012B11F8013B1B
:104FF800012A28BF9A42F7D0D01A7047034613F8FF
:10500800012B002AFBD1181A0138704730B582B13C
:10501800451E013915F8013F11F8014FA34206D189
:10502800EC431444E04201D0002BF3D11C46181B7A
:1050380030BD104630BD034610B542B111F8014BE2
:10504800013A03F8014B002CF7D11A4400E010BDD7
:10505800934202D003F8014BFAE710BD38B5034676
:105068000D4641B1002429461846FFF7A5FF30B187
:10507800431C0446F7E7BDE83840FFF79DBF2046CC
:1050880038BD00002DE9F0470F4680463F48D0F86C
:1050980000903D4615F8014B09EB0400407800F0FC
:1050A800080000F0FF0608B12F46F2E72D2C03D1C7
:1050B800BD1C7C78012603E02B2C04BF7C78BD1C2A
:1050C80013B1102B0AD15BE0302C57D1287800F0AF
:1050D800DF0058284DD16C7810230235002E14BFFC
:1050E8004FF0004C6FF0004CBCFBF3FA0027384639
:1050F80003FB1ACC09EB040E9EF801E01EF0040F26
:1051080001D0303C0BE01EF0030E1BD0BEF1010FA6
:105118000CBF4FF0370E4FF0570ECEEB0404A342EE
:1051280010DDB7F1FF3F0AD0504506D801D16445DC
:1051380003DC03FB0040012701E04FF0FF3715F8BF
:10514800014BD7E77B1C0CD1002E4FF0220314BF74
:105158004FF000406FF00040C8F800302AB9BDE8B1
:10516800F08706B1404272B107B1691E1160BDE80F
:10517800F0873024002BB1D10823AFE70A23ADE72D
:10518800302CA3D0AAE7BDE8F08700BF3403002085
:1051980013460A46014602480068FFF773BF00BF7E
:1051A800980300201D000A085D000A0889000A0803
:1051B8008D000A0800000000000000000000000048
:1051C8000000000000000000A5000A08C9000A0845
:1051D800000000000000000009010A083D010A085B
:1051E800D1300A08CB000A08626C6E6B696E6600E3
:1051F80076657200302E352E3400682D6265617434
:1052080000313000627566662D696E0031303234C7
:1052180000646576005061727469636C652050683B
:105228006F746F6E006275696C64004D6172203135
:105238003320323031392032333A31373A3336007D
:1052480000005D2000256900256C6900436F6E6EC3
:10525800656374696E6720746F20004E6577206DF2
:105268006F64652069732025642E004E657720746D
:10527800696D652069732025732E004E657720724D
:1052880065642076616C75652069732025642E003D
:105298004E657720677265656E2076616C7565204E
:1052A80069732025642E004E657720626C75652031
:1052B80076616C75652069732025642E004E6577CC
:1052C800206272696768746E6573732076616C75A5
:1052D800652069732025642E00696E0070776D0063
:1052E800647700617700496E76616C69642048577D
:1052F80020636D643A2000526561647920287069E2
:105308006E673A20006D73292E00496E76616C69CC
:1053180064206175746820746F6B656E00436F6EEE
:105328006E656374206661696C65642E20636F64C2
:10533800653A20005061636B657420746F6F20625A
:1053480069673A2000526561647900526564697240
:10535800656374696E6720746F20005365727665A3
:10536800723A2000486561727462656174207469DC
:105378006D656F7574004C6F67696E2074696D6533
:105388006F7574005374617274696E672073657405
:1053980075702E00415454364757353573590034CB
:1053A80063677033773475696B34320057694669BF
:1053B8002072656164792E005769466920736574A7
:1053C8007570206661696C65642E0050617274693D
:1053D800636C6520636F6E6E656374656420746FBB
:1053E80020434C4F55442E005061727469636C65BC
:1053F800206E6F7420636F6E6E65637465642074CD
:105408006F20434C4F55442E000D0A202020205F6A
:105418005F5F20205F5F2020202020202020202088
:105428005F5F0D0A2020202F205F20292F202F5F6B
:10543800205F5F5F5F5F20202F202F5F5F0D0A20B6
:10544800202F205F20202F202F202F2F202F205F7C
:10545800205C2F2020275F2F0D0A202F5F5F5F5FC2
:105468002F5F2F5C5F2C202F5F2F2F5F2F5F2F5C0C
:105478005F5C0D0A20202020202020202F5F5F5F06
:105488002F2076302E352E34206F6E2050617274A6
:1054980069636C652050686F746F6E0D0A00626CEA
:1054A800796E6B2D636C6F75642E636F6D000000F1
:1054B800A9030A08D9030A0819040A0849040A08AA
:1054C80079040A08A9040A0887110A0887110A0832
:1054D80087110A0887110A0887110A0887110A081C
:1054E80087110A0887110A0887110A0887110A080C
:1054F80087110A0887110A0887110A0887110A08FC
:1055080087110A0887110A0887110A0887110A08EB
:1058B8002C01000018000000F40100002C01000079
:1058C80050000000000000000000000077290A08CE
:1058D800C1290A0899290A0879290A08A1290A0860
:1058E800A9290A08B1290A08B9290A0800000000EC
:1058F80000000000072A0A08F9290A08FB290A08F3
:10590800302E300066616C73650074727565002511
:1059180064002575002567006E756C6C0075253070
:10592800347800000000000000000000852E0A08FE
:10593800AB2E0A085F2E0A08B72A0A0800000000E2
:105948000000000025360A0839360A083D2F0A08E3
:10595800672E0A080000000000000000812E0A08D7
:10596800C32E0A081D350A08CF2E0A0866006C6E79
:1059780000666E00636F64650064657461696C003D
:10598800253031307520002C200028293A200020AD
:105998005B00636F6465203D200064657461696C19
:1059A80073203D2000626175640053657269616C03
:1059B8000055534253657269616C310074797065A2
:1059C80000706172616D00636D6400696400686EE7
:1059D80064007374726D0066696C74006C766C0098
:1059E80061646448616E646C65720072656D6F769F
:1059F8006548616E646C657200656E756D48616EB0
:105A0800646C657273004A534F4E53747265616DCE
:105A18004C6F6748616E646C657200617070006EEF
:105A28006F6E6500747261636500696E666F0077FA
:105A380061726E006572726F720070616E696300E8
:105A4800616C6C000000000000000000F9350A08D5
:105A580011360A08D1300A08CB000A0800000000F5
:105A680000000000832E0A08B72E0A08E93C0A083D
:105A7800692E0A080000000000000000A93F0A087B
:105A8800AB3F0A080000000000000000C9410A08F6
:105A9800CF410A08EF420A08DB410A08CB410A084D
:105AA800000000000000000069010A08A9010A08B6
:105AB80085410A089F410A086D430A08BB420A0843
:105AC8008D420A08C7410A08A1440A08E1410A08A8
:105AD8000B430A08E9430A08F1450A0843460A083D
:105AE800AF410A08B5450A086D420A087769726924
:105AF8006E6700544350436C69656E7420736F631E
:105B08006B65743D2578005A00252B3033643A259F
:105B18003032750025592D256D2D25645425483AB8
:105B2800254D3A2553257A0061736374696D6500C4
:105B3800000000000000000065460A0889460A08BF
:105B480095460A08C13D0A0871460A087D460A08B2
:105B580077460A0883460A0867460A086B460A0811
:105B6800000000000000000051470A0895470A0895
:105B78006F470A08C13D0A0869470A0853470A08D7
:105B88005B470A088F470A0863470A084D470A080F
:105B98000000000000000000CB480A081C09002093
:105BA8000000202020202020202020282828282805
:105BB80020202020202020202020202020202020DD
:105BC8002020881010101010101010101010101035
:105BD8001010040404040404040404041010101035
:105BE80010101041414141414101010101010101F0
:105BF8000101010101010101010101010110101060
:105C080010101042424242424202020202020202C2
:105C18000202020202020202020202020210101032
:105C2800102000000000000000000000000000003C
:105C3800000000000000000000000000000000005C
:105C4800000000000000000000000000000000004C
:105C5800000000000000000000000000000000003C
:105C6800000000000000000000000000000000002C
:105C7800000000000000000000000000000000001C
:105C8800000000000000000000000000000000000C
:105C980000000000000000000000000000000000FC
:105CA80000000000000000000000000000000000EC
:105CB80000000000000000000000000000000000DC
:105CC80000000000000000000000000000000000CC
:105CD80000000000000000000000000000000000BC
:105CE80000000000000000000000000000000000AC
:105CF800000000000000000000000000000000009C
:105D0800000000004300000029100A0881110A0859
:105D1800B5110A08B9110A0855240A08B13D0A083C
:105D28008D3F0A0845410A0851460A08D5480A081D
:105D3800A94B0A08D94B0A08594C0A081D4D0A08EC
:085D4800A14D0A08254E0A08CE
:045D5000000000004F
:105D54000100000001313965393162626237356111
:105D640032346166653938393534393164663339EA
:105D740035633637640000006C5A0A0864590A080F
:105D8400305B0A08A95B0A0800000000AC5C0A0842
:105D9400CC5C0A08EC5C0A0800000000000000006B
:105DA40000000000000000000C5D0A080000000074
:105DB40000000000000000000000000000000000DF
:105DC40000000000000000000000000000000000CF
:105DD40000000000000000000000000000000000BF
:0C5DE40000000000000000003803002058
:105DF000FFFFFFFF00000102030405060708090A70
:105E00000B0C0D0E0F101112131415161718191A6A
:085E10001B1C1D1E1F202800B1
:045E18007856341272
:04000005080A0018CD
:00000001FF
